S01100006D696E695F73756D6F2E7372656343
S11300000C9448000C9465000C9465000C94A301B6
S11300100C94D4010C9465000C9465000C94440178
S11300200C9465000C9465000C9465000C946500B8
S11300300C9465000C9469010C9465000C946500A3
S11300400C9465000C9465000C9465000C94650098
S11300500C9465000C9465000C9465000C94650088
S11300600C9465000C946500000000000038011039
S113007001147165706E000001020203030303049E
S11300800404040404040471666E0071766E0000B6
S113009011241FBECFEFD8E0DEBFCDBF11E0A0E03A
S11300A0B1E0EEEAF3E102C005900D92A031B10790
S11300B0D9F721E0A0E1B1E001C01D92AD34B2074F
S11300C0E1F70E9438010C94D5090C94000083E2F6
S11300D084B980E98AB98CE08BB984E085B993E06E
S11300E09093680080936B0080E380936C00089584
S11300F08AB180668AB981EA84BD81E085BD17BC76
S113010018BC0895E4E6F0E080818E7F808380E669
S113011080937C0087E880937A0087E080937E0058
S1130120089521E020936F0026BB2DE7AC01249FA6
S1130130C001259F900D11249695879580959095E3
S1130140909385008093840084E0809381000895D7
S11301501D9A08952D9A08952D9808955C9A299AC8
S1130160289A5F9A17BC18BC08955C9A2998289A13
S11301705F988FEF87BD80EC88BD08955C98299ABD
S113018028985F9A8FEF87BD80EC88BD08955C9AAC
S1130190299828985F9A8FEF87BD88BD08955C9849
S11301A0299A289A5F988FEF87BD88BD0895982F64
S11301B0990F990F890F282F30E0462F50E0409572
S11301C05095422353232FEF30E0241B350BA90114
S11301D0440F551F240F351F5C9A2998289A5F985D
S11301E08623809587BD369527953695279528BD16
S11301F0089529B12C7026952695FC01208B08952D
S1130200CF93DF93ECE7F0E02081207F208320E090
S113021040E050E0EAE7F0E0C9E7D0E0ACE7B0E066
S1130220308130643083308136FDFDCF388123172F
S113023010F42881452F3C913F5F3C935F5F53301E
S113024079F750E0FA01E050FF4F3081321760F443
S1130250DC01ED91FC91455F5F4F0480F581E02D59
S11302606FEF099580E001C081E0DF91CF9108959F
S113027082E00E94E1056EEC79E088E391E00E945F
S1130280D5050E947806FDCF1F920F920FB60F92EC
S113029011242F933F934F935F936F937F938F9387
S11302A09F93AF93BF93EF93FF9380E00E941C064C
S11302B0FF91EF91BF91AF919F918F917F916F913A
S11302C05F914F913F912F910F900FBE0F901F9010
S11302D018951F920F920FB60F9211242F933F93EC
S11302E04F935F936F937F938F939F93AF93BF933A
S11302F0EF93FF93E1E8F0E080818B7F8083EFE66A
S1130300F0E080818E7F8083E0913801F0913901A3
S11303100680F781E02D20E040E150E06FEF88E3B4
S113032091E00995FF91EF91BF91AF919F918F91CA
S11303307F916F915F914F913F912F910F900FBEDD
S11303400F901F9018951F920F920FB60F921124C1
S11303502F933F934F935F936F937F938F939F93C9
S1130360AF93BF93EF93FF9383B1E0913801F09182
S113037039010680F781E02D20E048E050E06FEF7E
S113038088E391E00995FF91EF91BF91AF919F911F
S11303908F917F916F915F914F913F912F910F902A
S11303A00FBE0F901F9018951F920F920FB60F92C9
S11303B011242F933F934F935F936F937F938F9366
S11303C09F93AF93BF93EF93FF9386B1807390E0B5
S11303D09595879595958795959587959595879501
S11303E0833088F480934901E0913801F091390118
S11303F00680F781E02D20E049E050E06FEF88E3CC
S113040091E009950EC0E0913801F0913901068020
S1130410F781E02D20E04AE050E06FEF88E391E0BF
S11304200995FF91EF91BF91AF919F918F917F912A
S11304306F915F914F913F912F910F900FBE0F904D
S11304401F90189582E08093B00097E09093B100DC
S1130450E6EBF0E090819F7D908380937000109292
S1130460B2008DE48093B3000E9467000E9478007C
S11304700E948200089581E083BF7894889513BE1A
S11304800895F8940C940000089584E00895BF92B0
S1130490CF92DF92EF92FF920F931F93CF93DF934C
S11304A0CDB7DEB72A970FB6F894DEBF0FBECDBF27
S11304B08C01DC011296ED90FC9013978D919C9128
S11304C01197892B59F014968D919C911597892B2E
S11304D029F0B5E4EB16B2E0FB0631F068EC70E00D
S11304E082E790E00E944102D8011496ED91FC91BC
S11304F01597C8010995883031F062ED70E082E704
S113050090E00E944102CC24C3940F2EF3E0BF2E4E
S1130510F02DD8011496ED91FC911597FA83E98397
S113052016961C92C8010995F801848195818E154F
S11305309F0539F1DC2C0AC0D394F4E0FD1534F4A2
S11305406CED70E082E790E00E944102D8011496BD
S1130550ED91FC911597AD2DAA0FBB0B81E090E0B6
S11305608C0F9D1FA80FB91FED93FC93C80109952B
S1130570D80114968D919C9115978E159F05E1F6DF
S113058001C0D12C89819A81F80195838483C68224
S1130590ED2DEE0FFF0B81E090E08C0F9D1FE80F17
S11305A0F91F0190F081E02DC8010995DA9484F7D0
S11305B0E980FA80D8011696BC92C801F701099522
S11305C0883009F4A6CFD8011396FC92EE921297C4
S11305D01596FC92EE9214972A960FB6F894DEBF05
S11305E00FBECDBFDF91CF911F910F91FF90EF9080
S11305F0DF90CF90BF9008958F929F92AF92BF9259
S1130600CF92DF92EF92FF920F931F93CF93DF93DA
S1130610CDB7DEB72A970FB6F894DEBF0FBECDBFB5
S11306208C01DC011296ED90FC901397E114F10417
S113063039F014968D919C9115978E159F0531F084
S113064060E971E082E790E00E944102F801C48011
S1130650D580C801F6010995823061F4D801169657
S1130660BC90169716961C92C801F6010995D801FC
S11306701696BC92882351F3883008F45CC1F801C3
S1130680A480B580BA82A982FC82EB82DE82CD820C
S1130690EC14FD04C9F06894992491F8D8011696D5
S11306A09C92C801F7010995833031F4D80116965C
S11306B01C92C801F7010995D8011496ED90FC909D
S11306C01597CE14DF0451F7CA14DB0439F482E021
S11306D0F8018683C801F601099537C1D801169639
S11306E01C92C801F5010995D80114968D909C902F
S11306F01597C814D90409F428C116961C92C80188
S1130700F6010995D8011496ED90FC9015978E1476
S11307109F0439F482E016968C93C801F60109957A
S113072014C1AE14BF0441F482E0D80116968C9330
S1130730C801F601099596C09C828B82D801169651
S11307401C92C801F4010995811130C0BB24B394F3
S1130750AA24A394AB0CD8011496ED91FC9115979F
S1130760AA2DAA0FBB0B81E090E08C0F9D1FA80F50
S1130770B91FED93FC93CE16DF0659F494E09A1555
S11307800CF05AC06EEF71E082E790E00E944102E3
S113079053C0C80109958111E6C0BA2CD9CF68E0CD
S11307A072E082E790E00E94410202C0AA24A3946E
S11307B082E0D80116968C93C801F6010995BA2CEB
S11307C0EB2DEE0FFF0B81E090E08C0F9D1FE80FE7
S11307D0F91F80819181E816F90611F4BA942CC0AE
S11307E0BA9474F76894DD24D1F8D8011696DC9293
S11307F0C801F7010995833031F4D80116961C928B
S1130800C801F7010995D8011496ED90FC9015974D
S1130810BA2CAB2DAA0FBB0BE1E0F0E0EC0FFD1FEF
S1130820AE0FBF1F2D913C91E216F30611F4BA945A
S113083003C0BA9474F7D9CF81E0D80116968C938B
S1130840BB2084F0EB2DEE0FFF0B81E090E08C0FCA
S11308509D1FE80FF91F0190F081E02DC801099553
S1130860BA9484F7E980FA80D8011596FC92EE9246
S1130870149783E016968C93A12CBB24B3940F2E6B
S1130880F3E0CF2EF02D51C0D8011496ED91FC91D8
S11308901597FA83E98316961C92C8010995D80125
S11308A01496ED91FC911597EE15FF0509F452C0CD
S11308B0DA2CD394AD2DAA0FBB0B81E090E08C0F02
S11308C09D1FA80FB91FED93FC93C8010995D8018A
S11308D01496ED91FC911597EE15FF0551F789815A
S11308E09A8115969C938E931497B4E0BD1534F4B5
S11308F06AE971E082E790E00E944102F801B68261
S1130900ED2DEE0FFF0B81E090E08C0F9D1FE80FA3
S1130910F91F0190F081E02DC8010995DA9484F75C
S1130920E980FA80D8011696CC92C801F70109959E
S1130930883009F4A9CFD8011396FC92EE9212974D
S11309401596FC92EE92149713C081E0F801868309
S1130950B12C78CF89819A81D80115969C938E9376
S11309601497DA2CCBCFB4E0BA150CF021CF17CF03
S11309702A960FB6F894DEBF0FBECDBFDF91CF919C
S11309801F910F91FF90EF90DF90CF90BF90AF90A9
S11309909F908F900895FC0183E091E09183808380
S11309A085E492E093838283758364830895CF936F
S11309B0DF93DC011C968C911C9790E0FC01EE0FF8
S11309C0FF1FEE0FFF1F8E0F9F1F88599F4FFC01C3
S11309D034963491F8946F3F69F41F965C911F9795
S11309E05317C8F066E371E087E890E00E94410283
S11309F0C0E055C0C32FD0E01F965C911F97C51B64
S1130A00D10970E051E06C177D070CF050E0C52F60
S1130A10511102C044C0C1E00296FC016591749179
S1130A201D96EC911D97F0E0EE0FFF1FE60FF71FE8
S1130A304083FC01859194911D964C911D9750E043
S1130A40440F551FFA01E80FF91F21831D968C915D
S1130A501D97811103C01D963C931D971D968C9183
S1130A601D9781501D968C931D971F968C911F97EF
S1130A708F5F1F968C931F97813089F440914C01AE
S1130A801C968C91815021E030E0B90102C0660FC0
S1130A90771F8A95E2F7CB01842B80934C017894DD
S1130AA081E0C11101C080E0DF91CF910895CF931F
S1130AB0DF93DC011C968C911C9790E0FC01EE0FF7
S1130AC0FF1FEE0FFF1F8E0F9F1F88599F4FFC01C2
S1130AD0349634916F3F69F41F965C911F975317B6
S1130AE0C8F066E371E087E890E00E944102C0E04C
S1130AF055C0C32FD0E01F965C911F97C51BD10929
S1130B0070E051E06C177D070CF050E0C52F5111D7
S1130B1002C044C0C1E00296FC01659174911D9627
S1130B20EC911D97F0E0EE0FFF1FE60FF71F4083D7
S1130B30FC01859194911D964C911D9750E0440FB2
S1130B40551FFA01E80FF91F21831D968C911D97FB
S1130B50811103C01D963C931D971D968C911D9782
S1130B6081501D968C931D971F968C911F978F5FB4
S1130B701F968C931F97813089F440914C011C96E9
S1130B808C91815021E030E0B90102C0660F771FDB
S1130B908A95E2F7CB01842B80934C0181E0C1114B
S1130BA001C080E0DF91CF910895CF93DF93EC01F2
S1130BB00E94CB0487E091E099838883DF91CF91F1
S1130BC008951F93CF93DF93C82F8EEF8C0F883037
S1130BD030F064E670E087E890E00E944102C15082
S1130BE0C0934B0110924C01CC2311F111E0812FE1
S1130BF090E0FC01EE0FFF1FEE0FFF1FE80FF91F3F
S1130C00E859FF4FC591D491209731F46EE670E016
S1130C1087E890E00E9441021D861E861F86198681
S1130C2018861B861A861F5F80914B018117F8F680
S1130C30DF91CF911F910895FF920F931F93CF934C
S1130C40DF93F0904B01082F10E0E8012296CC0FBF
S1130C50DD1FCC0FDD1F0C5F1F4F2F2D30E0F9017E
S1130C60EE0FFF1FEE0FFF1FE20FF31FE859FF4FB8
S1130C7085919491FC01EC0FFD1F20813181211598
S1130C803105B9F02150310931832083232B89F4B4
S1130C90228133812115310511F031832083DC0158
S1130CA0ED91FC910680F781E02D20E0A8016FEF23
S1130CB00995FA9491F6DF91CF911F910F91FF90CE
S1130CC00895F89470E0FB013296EE0FFF1FEE0FCB
S1130CD0FF1FE80FF91F51834083660F771F660FCC
S1130CE0771FFC01E60FF71F338722877894089556
S1130CF080914B018150883030F064E670E08BE8DD
S1130D0090E00E94410280914B01882309F43AC08B
S1130D1011E0812F90E09C01220F331F220F331F1B
S1130D20820F931FFC01E859FF4FC591D49120977E
S1130D3031F46AE273E08BE890E00E9441021C8780
S1130D401F5F80914B01811720F78823D9F0C1E000
S1130D508C2F90E09C01220F331F220F331F820F30
S1130D60931FFC01E859FF4F85919491DC01ED91AB
S1130D70FC910190F081E02D0995CF5F80914B01AA
S1130D808C1730F70E942202F894CC24C394D12CFF
S1130D9080914C01882309F46EC080914C01807FBE
S1130DA051F0E0914C01E295EF70F0E0E958FF4F0B
S1130DB0E491EC5F06C0E0914C01F0E0E958FF4F8C
S1130DC0E4910E2F10E07801EE0CFF1CEE0CFF1CDA
S1130DD0C701800F911F9C0128593F4F7901F901E8
S1130DE0C591D4918F85811106C064E373E08BE8CB
S1130DF090E00E9441028F8581508F876E85862FF7
S1130E0090E0880F991F97012E5F3F4FF90145919C
S1130E105491FA01E80FF91F40814E83F90125919D
S1130E203491F901E80FF91F81818F83611104C0A6
S1130E30F7013496E490EE868E8581508E877894FF
S1130E40E881F9810280F381E02DCE010995F894BF
S1130E508F8581119DCF80914C0101501109D601DC
S1130E6002C0AA0FBB1F0A95E2F78D010095082363
S1130E7000934C018DCF0E943B02F89489CFFC0172
S1130E802681233019F02A3041F00EC02CE939E0D4
S1130E90FC013583248388E008952DE239E0FC01C8
S1130EA03583248388E0089525E432E0FC0135830A
S1130EB0248380E00895CF93DF93EC018E81843006
S1130EC071F0883081F08130E1F424E630E044E6CA
S1130ED050E060E0CE010E94610683E017C00E94EA
S1130EE0A80083E013C027EE33E047EE53E060E050
S1130EF0CE010E94610689E897E09D838C8388E097
S1130F0005C085E492E09D838C8380E0DF91CF91DE
S1130F100895FC012681223041F0243051F0213023
S1130F2079F40E94AA0083E008950E94AC0083E053
S1130F30089527EA37E0FC013583248388E0089587
S1130F4025E432E0FC013583248380E00895CF93C7
S1130F50DF93EC018E81833099F018F4813031F005
S1130F6035C08430F9F0893089F030C028E030E0B1
S1130F7048E050E060E0CE010E94610683E02FC0AB
S1130F808CE298E09D838C8388E029C08A89882339
S1130F9019F08989811120C08FE397E09D838C83A8
S1130FA088E01DC00E94A800CE010E940001882391
S1130FB0A9F0E881F9810480F581E02D20E04FE07B
S1130FC050E06FEFCE01099583E009C085E492E01B
S1130FD09D838C8380E003C083E001C083E0DF91C4
S1130FE0CF910895FC012681223019F0233029F095
S1130FF00BC00E94AE0083E0089521E738E0FC01B5
S11310003583248388E0089527EA37E0FC0135839B
S1131010248380E00895FC0126812C3079F02F3060
S113102031F0223091F40E94AE0083E0089524ED63
S113103038E0FC013583248388E0089521E738E013
S1131040FC013583248388E0089522EF37E0FC0116
S11310503583248380E00895FC012681233069F0E0
S113106018F4223031F017C02C3071F0203161F0C7
S113107012C00E94AE0083E008952CE539E0FC0123
S11310803583248388E0089522EF37E0FC0135831B
S1131090248388E0089527EA37E0FC01358324831C
S11310A080E00895FC012681223049F02F3059F068
S11310B0213081F4228B0E94B50083E00895FC0165
S11310C0128A83E0089521E738E0FC013583248304
S11310D088E0089522EF37E0FC013583248380E023
S11310E00895CF93DF93EC018E818B3069F018F46F
S11310F0813031F033C08C3059F18D30B9F02EC0CD
S11311000E94B50083E02FC06FEF8F810E94D7004B
S11311108F81843330F085EC98E09D838C8388E064
S113112022C06FEF0E94D70083E01DC060E08F8172
S11311300E94D7008F81843330F086EB98E09D8342
S11311408C8388E010C060E00E94D70083E00BC06D
S113115082E598E09D838C8388E005C082EF97E068
S11311609D838C8380E0DF91CF910895FC012681DB
S1131170213021F40E94C70083E008952BE038E079
S1131180FC013583248380E00895FC01268121300D
S113119021F40E94CF0083E008952BE038E0FC01A5
S11311A03583248380E00895FC0126812E3028F4C1
S11311B02B3060F4213021F010C0203139F00DC003
S11311C084EF91E00E94910083E0089521E738E0E4
S11311D0FC013583248388E0089522EF37E0FC0185
S11311E03583248380E00895FC012681213041F475
S11311F00E94CF0088EE93E00E94910083E008955E
S11312002CE238E0FC013583248380E00895FC015E
S11312102681213041F40E94CF0084E992E00E94AB
S1131220910083E008952CE238E0FC0135832483A7
S113123080E00895FC012681213041F40E94C7001A
S113124084E992E00E94910083E008952CE238E062
S1131250FC013583248380E00895FC0126812E302F
S113126038F42B30D8F4213031F0223099F01DC0FD
S11312702031A1F01AC0FC018189813019F40E9447
S1131280C70002C00E94CF0084EF91E00E94910049
S113129083E008950E94AE0083E0089522EF37E0D2
S11312A0FC013583248388E0089527EA37E0FC01B4
S11312B03583248380E00895CF93DF93EC018E81FE
S11312C08B3021F118F4813031F02CC08D30C1F015
S11312D08E3011F127C0CE010E94F900CE010E9488
S11312E00001882329F1E881F9810480F581E02D4A
S11312F020E04EE050E06FEFCE01099583E019C085
S11313008AE199E09D838C8388E013C087E099E0AB
S11313109D838C8388E00DC084EF98E09D838C834B
S113132088E007C08CE298E09D838C8380E001C054
S113133083E0DF91CF910895CF93DF93EC018E8109
S1131340813019F0843069F012C00E94BE0024E696
S113135030E044E650E060E0CE010E94610683E0A4
S11313600BC08FEB99E09D838C8388E005C08FE3ED
S113137097E09D838C8380E0DF91CF910895FC01F9
S11313802681213021F40E94BE0083E008952FE3DA
S113139037E0FC013583248380E008952BE537E0B2
S11113A0FC013583248388E00895F894FFCF80
S11313AE1C271C4702FC024702FC02D70457050007
S9030000FC
