:100000000C9448000C9465000C9465000C94A001BD
:100010000C94D1010C9465000C9465000C94410182
:100020000C9465000C9465000C9465000C946500BC
:100030000C9465000C9466010C9465000C946500AA
:100040000C9465000C9465000C9465000C9465009C
:100050000C9465000C9465000C9465000C9465008C
:100060000C9465000C94650000000000003801103D
:1000700001147165706E00000102020303030304A2
:100080000404040404040471666E0071766E0000BA
:1000900011241FBECFEFD8E0DEBFCDBF11E0A0E03E
:1000A000B1E0ECE2F4E102C005900D92A031B1079D
:1000B000D9F721E0A0E1B1E001C01D92AD34B20753
:1000C000E1F70E9435010C94140A0C94000083E2BD
:1000D00084B980E98AB98CE08BB984E085B993E072
:1000E0009093680080936B0080E380936C00089588
:1000F0008AB180668AB981EA84BD81E085BD17BC7A
:1001000018BC0895E4E6F0E080818E7F808380E66D
:1001100080937C0087E880937A0087E080937E005C
:10012000089521E020936F0026BB2DE7AC01249FAA
:10013000C001259F900D11249695879580959095E7
:10014000909385008093840084E0809381000895DB
:100150001D9A08952D9A08952D9808955C9A299ACC
:10016000289A5F9A17BC18BC08955C9A2998289A17
:100170005F988FEF87BD80EC88BD08955C98299AC1
:1001800028985F9A8FEF87BD80EC88BD08955C9AB0
:10019000299828985F9A8FEF87BD88BD08955C984D
:1001A000299A289A5F988FEF87BD88BD0895482FB8
:1001B000440F440F480F842F90E0262F30E0209505
:1001C0003095822393232FEF30E0281B390BC90190
:1001D000880F991F820F931F5C9A2998289A5F981D
:1001E0004623409547BD969587959695879588BDFA
:1001F000089529B12C7026952695FC01208B089531
:1002000020917C00207F20937C0020E040E050E0A3
:1002100030917A00306430937A0030917A0036FD64
:10022000FCCF30917900231718F420917900452FE5
:1002300030917C003F5F30937C005F5F533041F72B
:1002400050E0FA01E050FF4F3081321710F081E0AA
:100250000895DC01ED91FC91455F5F4F0480F581CD
:10026000E02D6FEF099580E0089582E00E94FD0582
:100270006DE07AE088E391E00E94F1050E94970624
:10028000FDCF1F920F920FB60F9211242F933F9321
:100290004F935F936F937F938F939F93AF93BF938E
:1002A000EF93FF9380E00E943B06FF91EF91BF9197
:1002B000AF919F918F917F916F915F914F913F91FE
:1002C0002F910F900FBE0F901F9018951F920F92B5
:1002D0000FB60F9211242F933F934F935F936F9319
:1002E0007F938F939F93AF93BF93EF93FF93E1E837
:1002F000F0E080818B7F8083EFE6F0E080818E7F6D
:100300008083E0913801F09139010680F781E02D7A
:1003100020E040E150E06FEF88E391E00995FF9124
:10032000EF91BF91AF919F918F917F916F915F916D
:100330004F913F912F910F900FBE0F901F901895E6
:100340001F920F920FB60F9211242F933F934F934A
:100350005F936F937F938F939F93AF93BF93EF932D
:10036000FF9383B1E0913801F09139010680F78164
:10037000E02D20E048E050E06FEF88E391E0099540
:10038000FF91EF91BF91AF919F918F917F916F916D
:100390005F914F913F912F910F900FBE0F901F9043
:1003A00018951F920F920FB60F9211242F933F931F
:1003B0004F935F936F937F938F939F93AF93BF936D
:1003C000EF93FF9386B1807390E09595879595950F
:1003D000879595958795959587958330F9F4E09164
:1003E0003801F09139010680F781E02D20E04AE0E4
:1003F00050E06FEF88E391E00995FF91EF91BF9195
:10040000AF919F918F917F916F915F914F913F91AC
:100410002F910F900FBE0F901F9018958093490158
:10042000E0913801F09139010680F781E02D20E05C
:1004300049E050E06FEF88E391E00995DECF92E06C
:100440009093B00087E08093B100E6EBF0E080810C
:100450008F7D8083909370001092B2008DE4809322
:10046000B3000E9467000E9478000C94820081E033
:1004700083BF7894889513BE0895F8940C94000077
:10048000089584E008958F929F92AF92BF92CF9289
:10049000DF92EF92FF920F931F93CF93DF93CDB72D
:1004A000DEB72A970FB6F894DEBF0FBECDBF7C0132
:1004B000DC011296CD90DC9013978D919C91119751
:1004C000892B59F01496ED91FC911597309729F0EE
:1004D000B1E4CB16B2E0DB0659F068EC70E082E7DD
:1004E00090E00E943D02D7011496ED91FC91159782
:1004F000C7010995883031F062ED70E082E790E045
:100500000E943D028824839483E0982EF701A48002
:10051000B580BA82A9821682C701F5010995D70173
:1005200014960D911C9115970C151D0509F465C0C5
:10053000BB24B394AB2DAA0FBB0B81E090E08C0FD2
:100540009D1FA80FB91F0D931C93C701F8010995B2
:10055000D70114968D919C9115978C159D0581F06E
:10056000B394B4E0BB1514F08C01E4CF6CED70E0F3
:1005700082E790E00E943D02F70104811581DACF05
:10058000C980DA80F701D582C48286820BC0AB2D88
:10059000AA0FBB0B81E090E08C0F9D1FA80FB91F25
:1005A0000D911C91C701F8010995BA94B7FEEFCFE0
:1005B000D70116969C92C701F6010995883009F477
:1005C000A5CFD7011396DC92CE9212971596DC92A6
:1005D000CE9214972A960FB6F894DEBF0FBECDBF09
:1005E000DF91CF911F910F91FF90EF90DF90CF900F
:1005F000BF90AF909F908F90089565018501B12CB9
:10060000C1CF7F928F929F92AF92BF92CF92DF9293
:10061000EF92FF920F931F93CF93DF93CDB7DEB787
:100620002A970FB6F894DEBF0FBECDBF8C01DC0158
:100630001296CD90DC901397C114D10441F014961A
:100640008D919C9115978C159D0509F46EC160E9FB
:1006500071E082E790E00E943D02F801948185817B
:10066000E92EF82E05C0811116C0F801E480F5804E
:10067000C801F70109958230B1F7D8011696BC90F0
:10068000169716961C92C801F7010995D80116967F
:10069000BC92882351F3883008F47BC0D8011496AB
:1006A000AD90BC901597BA82A982DC82CB82FE8283
:1006B000ED82CE14DF0401F132E0932E08C0D801A0
:1006C0001496CD90DC901597EC14FD04A9F0F80178
:1006D0009682C801F6010995833089F7D8011696EC
:1006E0001C92C801F6010995D8011496CD90DC90B2
:1006F0001597EC14FD0459F7EA14FB0409F466C0DD
:10070000D80116961C92C801F5010995D8011496D6
:100710008D909C901597E814F90409F45DC0169625
:100720001C92C801F7010995D8011496CD90DC9070
:1007300015978C149D0409F43AC1AC14BD0409F456
:1007400048C19C828B82D80116961C92C801F40184
:1007500009958111F0C088248394CE0101965C0133
:1007600099249394980CD8011496ED91FC911597C7
:10077000A92DAA0FBB0BAA0DBB1DED93FC93EE1682
:10078000FF0609F4AFC0C8010995811117C1892C72
:10079000E7CFD8011396DC92CE9212971596DC9291
:1007A000CE9214972A960FB6F894DEBF0FBECDBF37
:1007B000DF91CF911F910F91FF90EF90DF90CF903D
:1007C000BF90AF909F908F907F90089582E0F80146
:1007D0008683C801F501099581E0F8018683F5015A
:1007E000FA2CEF2E812C0CC0E82DEE0FFF0B81E0D0
:1007F00090E08C0F9D1FE80FF91F0190F081E02D14
:10080000C80109958A9487FEEFCFCF2CDE2CD80142
:100810001596DC92CE92149783E016968C93AA24B8
:10082000A39493E0B92EC801F6010995883009F028
:10083000B0CFF801848095809A8289821682C8019F
:10084000F4010995D8011496ED90FC901597EC14DD
:10085000FD0409F45AC0912C01C07C019394A92D88
:10086000AA0FBB0BE1E0F0E0EC0FFD1FAE0FBF1FC6
:10087000ED92FC92C801F7010995D80114968D916B
:100880009C9115978C159D0541F779808A80F80118
:1008900074828582F4E0F915DCF0F701C72CD82CBE
:1008A000D8011696AC920BC0A92DAA0FBB0BE1E0A4
:1008B000F0E0EC0FFD1FAE0FBF1FED91FC91C801E2
:1008C00009959A9497FEF0CFD8011696BC92ABCFBB
:1008D0006AE971E082E790E00E943D02F701C72CCF
:1008E000D82CDECFB4E0B915CCF081E0F8018683D6
:1008F00087FC1EC0F980EA80E82DEE0FFF0BEA0DA1
:10090000FB1D0190F081E02D7BCFD80115969C92C4
:100910008E9214976401F401912CC2CF6EEF71E0B6
:1009200082E790E00E943D02E0CF9C2D8D2D98CE75
:10093000C980DA806CCF99249394CE0101965C0132
:1009400082E0D80116968C93C801F7010995892C8D
:10095000E82DEE0FFF0BEA0DFB1D808191818A943B
:10096000C816D90611F287FEF3CF22E0F22ED80185
:100970001696FC92C801F6010995833099F1D801C9
:100980001496CD90DC901597892D03C0815087FD7A
:10099000EECFA82FAA0FBB0BAA0DBB1D2D913C912A
:1009A000C216D30699F788248A94880E9ECF82E0D7
:1009B00016968C93C801F70109950ECFE4E0E9156E
:1009C0000CF0BECF68E072E082E790E00E943D024A
:1009D000B7CF82E0D80116968C93C801F70109952C
:1009E000650115CFD80116961C92C801F60109952C
:1009F000C6CFFC0183E091E09183808381E492E0A3
:100A000093838283758364830895CF93DF93DC019E
:100A10001C96EC911C97F0E0CF01880F991F880F6E
:100A2000991F8E0F9F1F88599F4FFC013496349158
:100A3000F8946F3F09F43DC0C32FD0E01F965C913E
:100A40001F97C51BD10970E06C177D070CF03CC0E7
:100A50001D96CC911D970296FC0165917491D0E092
:100A6000CC0FDD1FC60FD71F48831D96CC911D9755
:100A7000FC0185919491D0E0CC0FDD1FC80FD91FE8
:100A800029831D96EC911D97E11101C0E32FE150E0
:100A90001D96EC931D971F968C911F978F5F1F9645
:100AA0008C931F978130A9F081E07894DF91CF91EA
:100AB00008951F965C911F97531750F266E371E0FB
:100AC00087E890E00E943D0280E07894DF91CF912A
:100AD000089520914C011C963C91315081E090E0AA
:100AE000032E01C0880F0A94EAF7282B20934C01AB
:100AF00081E07894DF91CF910895CF93DF93DC016B
:100B00001C96EC911C97F0E0CF01880F991F880F7D
:100B1000991F8E0F9F1F88599F4FFC013496349167
:100B20006F3F09F43CC0C32FD0E01F965C911F9724
:100B3000C51BD10970E06C177D070CF03BC01D96FA
:100B4000CC911D970296FC0165917491D0E0CC0F79
:100B5000DD1FC60FD71F48831D96CC911D97FC0142
:100B600085919491D0E0CC0FDD1FC80FD91F298348
:100B70001D96EC911D97E11101C0E32FE1501D96E8
:100B8000EC931D971F968C911F978F5F1F968C93E8
:100B90001F97813099F081E0DF91CF9108951F96E2
:100BA0005C911F97531758F266E371E087E890E075
:100BB0000E943D0280E0DF91CF91089520914C0189
:100BC0001C963C91315081E090E0032E01C0880FCB
:100BD0000A94EAF7282B20934C0181E0DF91CF9112
:100BE0000895CF93DF93EC010E94F90487E091E030
:100BF00099838883DF91CF9108951F93CF93DF93DB
:100C0000C82F8EEF8C0F883078F58FEF8C0F809384
:100C10004B0110924C018823D1F011E0212F30E0DC
:100C2000F901EE0FFF1FEE0FFF1FE20FF31FE85950
:100C3000FF4FC591D491209771F01D861E861F86A7
:100C4000198618861B861A861F5F811738F7DF9171
:100C5000CF911F9108956EE670E087E890E00E94C2
:100C60003D0280914B01E9CF64E670E087E890E0B7
:100C70000E943D02CACFFF920F931F93CF93DF9341
:100C8000F0904B01082F10E0E8012296CC0FDD1FF9
:100C9000CC0FDD1F0C5F1F4F2F2D30E0F901EE0F41
:100CA000FF1FEE0FFF1FE20FF31FE859FF4F859163
:100CB0009491FC01EC0FFD1F20813181211531053C
:100CC000B9F02150310931832083232B89F422810B
:100CD00033812115310511F031832083DC01ED9141
:100CE000FC910680F781E02D20E0A8016FEF0995C7
:100CF000FA9491F6DF91CF911F910F91FF90089593
:100D0000F89470E0FB013296EE0FFF1FEE0FFF1F0D
:100D1000E80FF91F51834083FB01EE0FFF1FEE0F19
:100D2000FF1FE80FF91F33872287789408954091B9
:100D30004B018FEF840F883008F0BFC011E004C072
:100D40001C871F5F4117E0F0212F30E0C901880F99
:100D5000991F880F991F820F931F88599F4FFC017D
:100D6000C591D491209761F76AE273E08BE890E037
:100D70000E943D0240914B011C871F5F411720F7E5
:100D80004423D9F0C1E02C2F30E0C901880F991F0E
:100D9000880F991F820F931F88599F4FFC018591DF
:100DA0009491DC01ED91FC910190F081E02D099589
:100DB000CF5F80914B018C1730F70E941F02F8948F
:100DC000EE24E394F12C80914C01882309F462C055
:100DD00080914C01807FE0914C01882309F460C030
:100DE000E295EF70F0E0E958FF4FE491EC5FCE2E12
:100DF000D12C8601000F111F000F111F0C0D1D1D9E
:100E000008591F4FF801C591D4918F85882309F4A3
:100E10004CC081508F876E85862F90E0880F991F78
:100E200098012E5F3F4FF90145915491FA01E80F67
:100E3000F91F40814E83F90125913491F901E80FA2
:100E4000F91F81818F83611129C0F80134960491C3
:100E500001500E877894E881F9810280F381E02DBA
:100E6000CE010995F8948F858111ADCF80914C0109
:100E7000B1E0CB1AD108970102C0220F331FCA94E8
:100E8000E2F76901C094C822C0924C0180914C01E4
:100E900081119ECF0E943702F89495CF062FD8CFAC
:100EA000F0E0E958FF4FE491A2CF64E373E08BE8F0
:100EB00090E00E943D028F85ACCF64E670E08BE845
:100EC00090E00E943D0240914B01442309F475CF0C
:100ED00035CFFC0126812C30A1F02F3059F0223083
:100EE00039F021EC37E0FC013583248380E008955C
:100EF00083E008952AE338E0FC013583248388E009
:100F0000089520EF38E0FC013583248388E00895BC
:100F1000FC012681233081F02A3039F424E739E0BE
:100F2000FC013583248388E0089521E432E0FC014C
:100F30003583248380E0089527EE39E0FC01358372
:100F4000248388E00895FC0126812230B1F024300A
:100F500069F0213039F021E432E0FC01358324834B
:100F600080E008950E94AA0083E0089521EA38E015
:100F7000FC013583248388E008950E94AC0083E05F
:100F80000895FC012681223081F0233039F420EFCE
:100F900038E0FC013583248388E0089521EA38E0B5
:100FA000FC013583248380E008950E94AE0083E035
:100FB0000895FC0126812330C9F058F02C3011F03F
:100FC000203169F421EC37E0FC013583248388E08B
:100FD0000895223021F40E94AE0083E0089521EAB2
:100FE00038E0FC013583248380E0089521EA39E06C
:100FF000FC013583248388E00895FC01268122309A
:10100000B9F02F3071F0213039F021EC37E0FC01DC
:101010003583248380E00895228B0E94B50083E00D
:10102000089520EF38E0FC013583248388E008959B
:10103000FC01128A83E00895FC012681213039F0F9
:1010400029E637E0FC013583248380E008950E947F
:10105000C70083E00895FC012681213039F029E69C
:1010600037E0FC013583248380E008950E94CF009F
:1010700083E00895FC0126812E3080F42B30B8F4F3
:10108000213031F0223061F40E94AE0083E00895F7
:1010900084EF91E00E94910083E00895203139F0BF
:1010A00021EC37E0FC013583248380E0089520EFB4
:1010B00038E0FC013583248388E00895FC01268113
:1010C000213039F028E837E0FC013583248380E0C3
:1010D00008950E94BE0083E00895CF93DF93EC0152
:1010E0008E81843041F18830B1F0813041F081E46B
:1010F00092E09D838C8380E0DF91CF91089524E678
:1011000030E044E650E060E0CE010E94800683E0DB
:10111000DF91CF91089527EE33E047EE53E060E092
:10112000CE010E94800683EA97E09D838C8388E04D
:10113000DF91CF9108950E94A80083E0DF91CF91C5
:101140000895CF93DF93EC018E81833089F1D0F045
:10115000843069F0893021F58A89811131C088E8AD
:1011600097E09D838C8388E0DF91CF9108950E9462
:10117000A800CE010E940001811126C083E0DF910A
:10118000CF910895813061F428E030E048E050E0EC
:1011900060E0CE010E94800683E0DF91CF91089548
:1011A00081E492E09D838C8380E0DF91CF9108956C
:1011B00089ED97E09D838C8388E0DF91CF9108953E
:1011C0008989882361F2DACFE881F9810480F58189
:1011D000E02D20E04FE050E06FEFCE010995CECF3B
:1011E000CF93DF93EC018E818B3061F1D8F08C309E
:1011F00089F08D30F9F460E08F810E94D7008F81F3
:10120000843378F18CE198E09D838C8388E0DF91D2
:10121000CF9108958DEF97E09D838C8388E0DF91D7
:10122000CF910895813031F40E94B50083E0DF91C1
:10123000CF91089581EC97E09D838C8380E0DF91CE
:10124000CF9108956FEF8F810E94D7008F818433F3
:1012500068F08BE298E09D838C8388E0DF91CF91EA
:10126000089560E00E94D70083E0D9CF6FEF0E941D
:10127000D70083E0D4CFFC012681213039F029ED5D
:1012800037E0FC013583248380E008950E94CF007D
:1012900088EE93E00E94910083E00895FC0126818E
:1012A000213039F029ED37E0FC013583248380E0DB
:1012B00008950E94CF0084E992E00E94910083E0AB
:1012C0000895FC012681213039F029ED37E0FC0139
:1012D0003583248380E008950E94C70084E992E06A
:1012E0000E94910083E00895FC0126812E30B0F425
:1012F0002B30E8F4213031F0223091F40E94AE001E
:1013000083E00895FC0181898130C1F00E94CF0003
:1013100084EF91E00E94910083E00895203139F03C
:1013200021EA38E0FC013583248380E0089521EC34
:1013300037E0FC013583248388E008950E94C700CC
:10134000E7CFCF93DF93EC018E818B3059F1A0F082
:101350008D3051F08E30F1F48BE399E09D838C83D6
:1013600088E0DF91CF91089581E699E09D838C8399
:1013700088E0DF91CF910895813061F4CE010E9421
:10138000F900CE010E940001811114C083E0DF91B9
:10139000CF91089589ED97E09D838C8380E0DF9164
:1013A000CF9108958EE499E09D838C8388E0DF914E
:1013B000CF910895E881F9810480F581E02D20E046
:1013C0004EE050E06FEFCE01099583E0CACFCF9396
:1013D000DF93EC018E81813091F0843041F088E818
:1013E00097E09D838C8380E0DF91CF9108958EE517
:1013F00098E09D838C8388E0DF91CF9108950E94CF
:10140000BE0024E630E044E650E060E0CE010E94F9
:10141000800683E0DF91CF9108952DE638E0FC014E
:0C1420003583248388E00895F894FFCF02
:10142C001C271C430201034302010305057D050033
:00000001FF
